:100000000C9459000C9481000C9481000C94810094
:100010000C9481000C9481000C9481000C9481005C
:100020000C9481000C9481000C9481000C9481004C
:100030000C9481000C9481000C9481000C9481003C
:100040000C94AF000C9481000C94F2020C943503D4
:100050000C9481000C9481000C9481000C9481001C
:100060000C9487050C948100000000070002010039
:100070000003040600000000000000000102040864
:100080001020408001020408102001020408102002
:10009000040404040404040402020202020203032E
:1000A0000303030300000000250028002B00F103D8
:1000B000F80411241FBECFEFD8E0DEBFCDBF11E0A2
:1000C000A0E0B1E0E0E8FEE002C005900D92A032B1
:1000D000B107D9F722E0A0E2B1E001C01D92A23938
:1000E000B207E1F710E0C2EBD0E004C02297FE01B6
:1000F0000E943A07CE3AD107C9F70E9453020C94E6
:1001000013070C94000040E855E260E070E089E2DB
:1001100091E00E94700383ED91E00C94DE0441E0D5
:1001200050E060E570E083ED91E00E94F50483ED1E
:1001300091E00E944704892B61F083ED91E00E94D9
:100140004F044AE050E0682F89E291E00E943C02AF
:10015000EECF64EF71E080E090E00C941C011F9200
:100160000F920FB60F9211242F933F938F939F936B
:10017000AF93BF938091210190912201A09123011F
:10018000B09124013091200123E0230F2D3720F47A
:100190000196A11DB11D05C026E8230F0296A11DE1
:1001A000B11D209320018093210190932201A093FF
:1001B0002301B09324018091250190912601A09103
:1001C0002701B09128010196A11DB11D8093250141
:1001D00090932601A0932701B0932801BF91AF917E
:1001E0009F918F913F912F910F900FBE0F901F9075
:1001F00018953FB7F8948091250190912601A09120
:100200002701B091280126B5A89B05C02F3F19F002
:100210000196A11DB11D3FBF6627782F892F9A2F08
:10022000620F711D811D911D42E0660F771F881FAF
:10023000991F4A95D1F70895CF92DF92EF92FF92DE
:10024000CF93DF936B017C010E94F900EB01C11495
:10025000D104E104F10479F00E94F9006C1B7D0BDC
:10026000683E7340A0F381E0C81AD108E108F108A4
:10027000C851DC4FECCFDF91CF91FF90EF90DF9032
:10028000CF900895789484B5826084BD84B58160F0
:1002900084BD85B5826085BD85B5816085BDEEE68E
:1002A000F0E0808181608083E1E8F0E0108280816D
:1002B00082608083808181608083E0E8F0E08081DB
:1002C00081608083E1EBF0E0808184608083E0EBFB
:1002D000F0E0808181608083EAE7F0E080818460E3
:1002E000808380818260808380818160808380813F
:1002F000806880831092C1000895CF92DF92EF92C0
:10030000FF920F931F93CF93DF936C017A01EB0160
:10031000E60EF71E00E010E0CE15DF0561F06991F2
:10032000D601ED91FC910190F081E02DC601099577
:10033000080F191FF1CFC801DF91CF911F910F91C5
:10034000FF90EF90DF90CF9008956115710581F0D7
:10035000DB010D900020E9F7AD0141505109461B2A
:10036000570BDC01ED91FC910280F381E02D0994A3
:1003700080E090E00895DC01ED91FC910190F08126
:10038000E02D09940F931F93CF93DF93EC016DE061
:100390000E94BB018C016AE0CE010E94BB01800F6C
:1003A000911FDF91CF911F910F9108958F929F928E
:1003B000AF92BF92CF92DF92EF92FF920F931F9373
:1003C000CF93DF93CDB7DEB7A1970FB6F894DEBF1A
:1003D0000FBECDBF7C01C42EE52FCB01D22E19A2BA
:1003E00021E02D1510F02AE0D22E8E010F5D1F4F57
:1003F0008D2C912CA12CB12C6C2D7E2FA50194015C
:100400000E9416078C2DD29E8019112401501109CB
:100410008A3014F4805D01C0895CF8018083211565
:1004200031054105510521F0C22EE32FCA01E4CF69
:10043000B801C7010E94A501A1960FB6F894DEBFCE
:100440000FBECDBFDF91CF911F910F91FF90EF9025
:10045000DF90CF90BF90AF909F908F90089521151F
:10046000310541F4DC01ED91FC910190F081E02D2A
:10047000642F09940C94D6010F931F93CF93DF93AD
:10048000EC019A01462F50E060E070E00E942F02DC
:100490008C01CE010E94C201800F911FDF91CF918C
:1004A0001F910F9108950E9442010E948300CCE2A7
:1004B000D3E00E948F002097E1F30E942C03F9CF34
:1004C000FC0124853585F901E05CFF4F8081918135
:1004D000329620813181821B930B8F739927089567
:1004E000FC0184859585FC01E05CFF4F40815181D2
:1004F0003296208131814217530741F00190F081FB
:10050000E02DE80FF91F808190E008958FEF9FEFB5
:100510000895FC0184859585FC01E05CFF4F4081D6
:1005200051813296208131814217530779F0A081A1
:10053000B181A80FB91F8C91208131812F5F3F4F6E
:100540002F7333273183208390E008958FEF9FEF3F
:100550000895FC0181A1882329F0A489B5898C9193
:1005600086FFFBCF11A20895CF93DF93FC01268570
:100570003785D901A05CBF4F8D919C911197019651
:100580008F739927E901CE5BDF4F4881598184172A
:100590009507D9F30D90BC91A02DA20FB31F6C93BA
:1005A000A685B785A05CBF4F11969C938E93A689B4
:1005B000B7892C9181E090E0078C02C0880F991FC9
:1005C0000A94E2F7282B2C9381E081A30488F58913
:1005D000E02D80818064808381E090E0DF91CF9185
:1005E000089508951F920F920FB60F9211242F9322
:1005F0003F934F938F939F93EF93FF938091C0000E
:1006000082FD1CC04091C6008091CF019091D00125
:1006100001968F7399272091D1013091D2018217D1
:10062000930771F0E091CF01F091D001E157FE4FB7
:1006300040839093D0018093CF0102C08091C60087
:10064000FF91EF919F918F914F913F912F910F903B
:100650000FBE0F901F90189589E291E00E946002F2
:10066000892B11F00C94F10208951F920F920FB68E
:100670000F9211242F933F938F939F93EF93FF93A8
:1006800020918B0130918C0180918D0190918E0190
:100690002817390731F48091C1008F7D8093C10004
:1006A00014C0E0918D01F0918E01E55BFE4F208139
:1006B00080918D0190918E0101968F73992790936F
:1006C0008E0180938D012093C600FF91EF919F9141
:1006D0008F913F912F910F900FBE0F901F90189503
:1006E000CF92DF92EF92FF92CF93DF93EC016A01FA
:1006F0007B01411581EE580761057105F9F0EC8920
:10070000FD8981E090E008A002C0880F991F0A943B
:10071000E2F7808360E079E08DE390E0A701960145
:100720000E941607215031094109510956954795F4
:1007300037952795211580E1380798F0EC89FD89D8
:10074000108260E874E88EE190E0A70196010E94B3
:10075000160721503109410951095695479537959A
:100760002795E889F9893083EA89FB89208319A2D2
:10077000EE89FF89408181E090E09C010C8C02C0F1
:10078000220F331F0A94E2F7422B4083EE89FF8940
:1007900040819C010D8C02C0220F331F0A94E2F7A6
:1007A000422B4083EE89FF8940819C010E8C02C060
:1007B000220F331F0A94E2F7422B4083EE89FF8910
:1007C00020810F8C02C0880F991F0A94E2F7809550
:1007D00082238083DF91CF91FF90EF90DF90CF90C5
:1007E000089510922C0110922B0188EE93E0A0E066
:1007F000B0E080932D0190932E01A0932F01B09330
:10080000300184E091E090932A01809329018FE8E0
:1008100091E090933601809335018BE491E09093C1
:1008200038018093370185EC90E090933A018093F2
:10083000390184EC90E090933C0180933B0180EC83
:1008400090E090933E0180933D0181EC90E0909385
:10085000400180933F0182EC90E0909342018093AD
:10086000410186EC90E0909344018093430184E041
:100870008093450183E08093460187E080934701A0
:1008800085E08093480181E080934901089580913B
:10089000020290E020910302821B910908952091A9
:1008A000030280910202281750F4E22FF0E0EC5F7F
:1008B000FD4F808190E02F5F2093030208958FEF1A
:1008C0009FEF0895E091030280910202E81730F44F
:1008D000F0E0EC5FFD4F808190E008958FEF9FEF97
:1008E00008950895CF92DF92EF92FF920F931F9396
:1008F000CF93DF937C01CB018A012091DF0122237A
:1009000089F0EB016B01C40ED51ECC15DD0569F035
:100910006991D701ED91FC910190F081E02DC70123
:100920000995F3CF642F0E945E05C801DF91CF9136
:100930001F910F91FF90EF90DF90CF900895CF938C
:10094000DF931F92CDB7DEB769832091DF012223A9
:10095000D1F02091E001203240F021E030E0FC01B4
:100960003383228380E090E015C08091E101E82F7D
:10097000F0E0EE51FE4F998190838F5F8093E1010B
:100980008093E00105C061E0CE0101960E945E0502
:1009900081E090E00F90DF91CF910895FC011382E8
:1009A000128248EE53E060E070E044835583668332
:1009B000778384E191E0918380830895109203020C
:1009C000109202021092E1011092E0010C94FC04DA
:1009D000862F413208F040E264E072E00E941A057E
:1009E0001092030280930202089521E00C94E8041F
:1009F00083ED91E00C94CE041092910281E08093FB
:100A00008F0210928E0261E082E10E94DD0661E0B9
:100A100083E10E94DD06E9EBF0E080818E7F808338
:100A200080818D7F808388E48093B80085E4809303
:100A3000BC000895413208F03FC09091910291119D
:100A4000FCCF91E09093910220938F022FEF20939F
:100A5000240210926902240F20936802909390025E
:100A600090919002880F892B8093900280918E0242
:100A7000813041F410928E02809190028093BB00ED
:100A800085EC01C085EE8093BC008091910281309D
:100A9000E1F380916902841710F4409169022AE61B
:100AA00032E0FB01D9018A2F821B841718F48D9143
:100AB0008193F9CF842F089580E00895613298F4EE
:100AC00020919102243089F460934602FC0188E46D
:100AD00092E0DC012A2F281B261718F421912D9370
:100AE000F9CF80E0089581E0089582E0089585EDD2
:100AF0008093BC008091BC0084FDFCCF10929102D9
:100B0000089585EC8093BC001092910208951F9285
:100B10000F920FB60F9211242F933F934F935F9331
:100B20006F937F938F939F93AF93BF93EF93FF93B5
:100B30008091B900887F803609F49CC068F58832BE
:100B400009F45BC090F4803109F454C038F4882370
:100B500009F4F5C0883009F44DC0F5C0883109F4B6
:100B60004CC0803209F45DC0EEC0803409F468C026
:100B700048F4803309F455C0883309F0E4C0809309
:100B80002402A8C0803509F44FC0883509F45DC03F
:100B9000883409F0D8C0D5C0883909F4C6C0A8F493
:100BA000883709F467C038F4883609F463C08037A1
:100BB00009F460C0C8C0883809F4B7C0803909F4A6
:100BC0005FC0803809F0BFC05BC0803B09F485C0BE
:100BD00038F4803A09F466C0883A09F47EC0B3C09C
:100BE000803C09F4A6C0883C09F4A3C0883B09F402
:100BF00089C0A9C08091900210C090916902809133
:100C00006802981770F5E091690281E08E0F809379
:100C10006902F0E0E659FD4F80818093BB0085ECCE
:100C200085C0809324028DC0E091690281E08E0F1F
:100C3000809369028091BB00F0E0E659FD4F80830C
:100C400090916902809168026DC0E091690281E033
:100C50008E0F809369028091BB00F0E0E659FD4F52
:100C6000808380918F0281116CC081E080938E021D
:100C700084EA60C083E08093910210922502CFCF76
:100C800080912502803208F050C0E091250281E079
:100C90008E0F809325028091BB00F0E0EA5DFD4F4E
:100CA0008083BDCF80912502803230F4E09125020F
:100CB000F0E0EA5DFD4F10820E9477056091250209
:100CC00070E0E0918A02F0918B0286E292E0099551
:100CD000109225020E94810536C084E08093910223
:100CE0001092470210924602E0918C02F0918D0220
:100CF000099580914602811105C081E080934602EA
:100D000010924802E091470281E08E0F80934702E3
:100D1000F0E0E85BFD4F80818093BB00909147023B
:100D200080914602981708F47ACF85E88093BC003A
:100D30000AC085EC8093BC001092910204C010920E
:100D400024020E947705FF91EF91BF91AF919F918F
:100D50008F917F916F915F914F913F912F910F9064
:100D60000FBE0F901F901895833081F028F48130CA
:100D700099F08230A1F008958630A9F08730B9F05B
:100D80008430D1F4809180008F7D03C080918000F9
:100D90008F7780938000089584B58F7702C084B5E3
:100DA0008F7D84BD08958091B0008F7703C08091BE
:100DB000B0008F7D8093B00008950F931F93CF9361
:100DC000DF931F92CDB7DEB7282F30E0F901E85945
:100DD000FF4F8491F901E458FF4F1491F901E05756
:100DE000FF4F04910023C9F0882321F069830E94FA
:100DF000B4066981E02FF0E0EE0FFF1FEC55FF4FC6
:100E0000A591B4919FB7F8948C91611103C010958E
:100E1000812301C0812B8C939FBF0F90DF91CF91D5
:100E20001F910F910895F8940C943E07A1E21A2E99
:100E3000AA1BBB1BFD010DC0AA1FBB1FEE1FFF1F7E
:100E4000A217B307E407F50720F0A21BB30BE40BCE
:100E5000F50B661F771F881F991F1A9469F7609515
:100E60007095809590959B01AC01BD01CF010895CF
:100E7000EE0FFF1F0590F491E02D0994F894FFCF39
:100E800000000000B4027D01600289027002A90224
:100E9000000000009F04720447044F0462047104C0
:00000001FF
